:0A017E00120161D2AF12009A80FB5B
:0501A000C284D283229D
:0501A500D284C2832298
:0501AA00C286D285228F
:0501AF00D286C285228A
:0501B400D284D2832279
:0501B900D286D2852270
:060003001201A00201AF92
:060188001201A50201AA0C
:06018E001201B40201AFF2
:060194001201B90201A0F6
:06019A001201B40201B9DC
:10014C00EF1FAC0670011E4C600A7D147C71DCFE46
:04015C00DDFC80EC5A
:01016000227C
:10009A0030A61530A51230A40F30A30CE4F508F5EC
:1000AA0009F50AF50B12019A20A61830A51520A405
:1000BA001220A30F75080075090F750A00750B0940
:1000CA0012000320A61820A51530A41220A30F752C
:1000DA000800750909750A00750B0F12000320A69E
:1000EA001820A51520A41220A30F75080075090B66
:0A00FA00750A00750B0B12000322BB
:0C017100020A000002080000020C00005E
:10016100438901758CFF758A9CD2A9D28CD2AF22AA
:03000B00020104EB
:10010400C0E0C0D0758CFF758A9C050DE50D7002AA
:10011400050CC39509E50C95085004D2918002C2E0
:1001240091C3E50D950BE50C950A5004D29080021D
:10013400C290C3E50D9464E50C94004006750C0070
:08014400750D00D0D0D0E032AF
:0300000002000EED
:0C000E00787FE4F6D8FD75810D020055E6
:10001A0002017EE493A3F8E493A34003F68001F27D
:10002A0008DFF48029E493A3F85407240CC8C333E7
:10003A00C4540F4420C8834004F456800146F6DFB6
:10004A00E4800B0102040810204080900171E47ED4
:10005A00019360BCA3FF543F30E509541FFEE493AB
:10006A00A360010ECF54C025E060A840B8E493A372
:10007A00FAE493A3F8E493A3C8C582C8CAC583CA9D
:10008A00F0A3C8C582C8CAC583CADFE9DEE780BE55
:01017D000081
:00000001FF
